{
  "contractName": "PaymentsContract",
  "abi": [
    {
      "inputs": [],
      "stateMutability": "nonpayable",
      "type": "constructor"
    },
    {
      "anonymous": false,
      "inputs": [
        {
          "indexed": false,
          "internalType": "string",
          "name": "_timestamp",
          "type": "string"
        },
        {
          "indexed": false,
          "internalType": "address",
          "name": "_from",
          "type": "address"
        },
        {
          "indexed": false,
          "internalType": "uint256",
          "name": "_value",
          "type": "uint256"
        }
      ],
      "name": "Payment",
      "type": "event"
    },
    {
      "inputs": [],
      "name": "owner",
      "outputs": [
        {
          "internalType": "address",
          "name": "",
          "type": "address"
        }
      ],
      "stateMutability": "view",
      "type": "function",
      "constant": true
    },
    {
      "inputs": [],
      "name": "price",
      "outputs": [
        {
          "internalType": "uint256",
          "name": "",
          "type": "uint256"
        }
      ],
      "stateMutability": "view",
      "type": "function",
      "constant": true
    },
    {
      "inputs": [],
      "name": "getUserSubscriptionData",
      "outputs": [
        {
          "internalType": "string",
          "name": "",
          "type": "string"
        },
        {
          "internalType": "bool",
          "name": "",
          "type": "bool"
        }
      ],
      "stateMutability": "view",
      "type": "function",
      "constant": true
    },
    {
      "inputs": [
        {
          "internalType": "string",
          "name": "_timestamp",
          "type": "string"
        }
      ],
      "name": "payment",
      "outputs": [],
      "stateMutability": "payable",
      "type": "function",
      "payable": true
    },
    {
      "inputs": [
        {
          "internalType": "address",
          "name": "_address",
          "type": "address"
        }
      ],
      "name": "addToExcluded",
      "outputs": [],
      "stateMutability": "nonpayable",
      "type": "function"
    }
  ],
  "bytecode": "0x608060405234801561001057600080fd5b50336000806101000a81548173ffffffffffffffffffffffffffffffffffffffff021916908373ffffffffffffffffffffffffffffffffffffffff16021790555061094c806100606000396000f3fe60806040526004361061004a5760003560e01c80634a0e963c1461004f5780638da5cb5b14610078578063a035b1fe146100a3578063af6fd4a7146100ce578063c6220ebe146100ea575b600080fd5b34801561005b57600080fd5b5061007660048036038101906100719190610543565b610116565b005b34801561008457600080fd5b5061008d6101ff565b60405161009a9190610696565b60405180910390f35b3480156100af57600080fd5b506100b8610223565b6040516100c59190610761565b60405180910390f35b6100e860048036038101906100e39190610570565b61022f565b005b3480156100f657600080fd5b506100ff610309565b60405161010d9291906106f1565b60405180910390f35b3373ffffffffffffffffffffffffffffffffffffffff1660008054906101000a900473ffffffffffffffffffffffffffffffffffffffff1673ffffffffffffffffffffffffffffffffffffffff16146101a4576040517f08c379a000000000000000000000000000000000000000000000000000000000815260040161019b90610741565b60405180910390fd5b6001600260008373ffffffffffffffffffffffffffffffffffffffff1673ffffffffffffffffffffffffffffffffffffffff16815260200190815260200160002060006101000a81548160ff02191690831515021790555050565b60008054906101000a900473ffffffffffffffffffffffffffffffffffffffff1681565b670de0b6b3a764000081565b670de0b6b3a76400003414610279576040517f08c379a000000000000000000000000000000000000000000000000000000000815260040161027090610721565b60405180910390fd5b8181600160003373ffffffffffffffffffffffffffffffffffffffff1673ffffffffffffffffffffffffffffffffffffffff16815260200190815260200160002091906102c7929190610435565b507f88b3400591852f84d54c3b8327fe53aaaf4846189bac8e5fdad0dfa2aeeb118a828233346040516102fd94939291906106b1565b60405180910390a15050565b6060600080600160003373ffffffffffffffffffffffffffffffffffffffff1673ffffffffffffffffffffffffffffffffffffffff168152602001908152602001600020805461035890610822565b80601f016020809104026020016040519081016040528092919081815260200182805461038490610822565b80156103d15780601f106103a6576101008083540402835291602001916103d1565b820191906000526020600020905b8154815290600101906020018083116103b457829003601f168201915b505050505090506000600260003373ffffffffffffffffffffffffffffffffffffffff1673ffffffffffffffffffffffffffffffffffffffff16815260200190815260200160002060009054906101000a900460ff16905081819350935050509091565b82805461044190610822565b90600052602060002090601f01602090048101928261046357600085556104aa565b82601f1061047c57803560ff19168380011785556104aa565b828001600101855582156104aa579182015b828111156104a957823582559160200191906001019061048e565b5b5090506104b791906104bb565b5090565b5b808211156104d45760008160009055506001016104bc565b5090565b6000813590506104e7816108ff565b92915050565b60008083601f84011261050357610502610888565b5b8235905067ffffffffffffffff8111156105205761051f610883565b5b60208301915083600182028301111561053c5761053b61088d565b5b9250929050565b60006020828403121561055957610558610897565b5b6000610567848285016104d8565b91505092915050565b6000806020838503121561058757610586610897565b5b600083013567ffffffffffffffff8111156105a5576105a4610892565b5b6105b1858286016104ed565b92509250509250929050565b6105c681610798565b82525050565b6105d5816107aa565b82525050565b60006105e78385610787565b93506105f48385846107e0565b6105fd8361089c565b840190509392505050565b60006106138261077c565b61061d8185610787565b935061062d8185602086016107ef565b6106368161089c565b840191505092915050565b600061064e601983610787565b9150610659826108ad565b602082019050919050565b6000610671601e83610787565b915061067c826108d6565b602082019050919050565b610690816107d6565b82525050565b60006020820190506106ab60008301846105bd565b92915050565b600060608201905081810360008301526106cc8186886105db565b90506106db60208301856105bd565b6106e86040830184610687565b95945050505050565b6000604082019050818103600083015261070b8185610608565b905061071a60208301846105cc565b9392505050565b6000602082019050818103600083015261073a81610641565b9050919050565b6000602082019050818103600083015261075a81610664565b9050919050565b60006020820190506107766000830184610687565b92915050565b600081519050919050565b600082825260208201905092915050565b60006107a3826107b6565b9050919050565b60008115159050919050565b600073ffffffffffffffffffffffffffffffffffffffff82169050919050565b6000819050919050565b82818337600083830152505050565b60005b8381101561080d5780820151818401526020810190506107f2565b8381111561081c576000848401525b50505050565b6000600282049050600182168061083a57607f821691505b6020821081141561084e5761084d610854565b5b50919050565b7f4e487b7100000000000000000000000000000000000000000000000000000000600052602260045260246000fd5b600080fd5b600080fd5b600080fd5b600080fd5b600080fd5b6000601f19601f8301169050919050565b7f756e7065726d6974746564207061796d656e742076616c756500000000000000600082015250565b7f4163636573732064656e6965642e204f6e6c7920666f72206f776e65722e0000600082015250565b61090881610798565b811461091357600080fd5b5056fea26469706673582212208ea20aeb9e21eba4aa04f0864d22fe9011c2dcc83e793df389dc9d404be0c0c664736f6c63430008070033",
  "immutableReferences": {},
  "source": "// SPDX-License-Identifier: MIT\r\npragma solidity >=0.4.22 <0.9.0;\r\n\r\ncontract PaymentsContract {\r\n    uint256 public constant price = 10**18;\r\n    address public owner;\r\n\r\n    mapping(address => string) private userSubscriptionList; // gettind data via getUserSubscriptionData\r\n    mapping(address => bool) private excludedAccount;\r\n\r\n    modifier onlyOwner() {\r\n        require(owner == msg.sender, \"Access denied. Only for owner.\");\r\n        _;\r\n    }\r\n\r\n    event Payment(string _timestamp, address _from, uint256 _value);\r\n\r\n    constructor() public {\r\n        owner = msg.sender;\r\n    }\r\n\r\n    function getUserSubscriptionData()\r\n        public\r\n        view\r\n        returns (string memory, bool)\r\n    {\r\n        string memory paymentTimestamp = userSubscriptionList[msg.sender];\r\n        bool excluded = excludedAccount[msg.sender];\r\n        return (paymentTimestamp, excluded);\r\n    }\r\n\r\n    function payment(string calldata _timestamp) external payable {\r\n        require(msg.value == price, \"unpermitted payment value\");\r\n        userSubscriptionList[msg.sender] = _timestamp;\r\n        emit Payment(_timestamp, msg.sender, msg.value);\r\n    }\r\n\r\n    function addToExcluded(address _address) external onlyOwner {\r\n        excludedAccount[_address] = true;\r\n    }\r\n}\r\n",
  "sourcePath": "C:\\Users\\dawid\\OneDrive\\Pulpit\\cryptofy-react\\client\\contracts\\PaymentsContract.sol",
  "compiler": {
    "name": "solc",
    "version": "0.8.7+commit.e28d00a7.Emscripten.clang"
  },
  "schemaVersion": "3.4.3",
  "updatedAt": "2021-09-27T07:52:38.409Z",
  "networkType": "ethereum",
  "devdoc": {
    "kind": "dev",
    "methods": {},
    "version": 1
  },
  "userdoc": {
    "kind": "user",
    "methods": {},
    "version": 1
  }
}