{
  "contractName": "PaymentsContract",
  "abi": [
    {
      "inputs": [],
      "stateMutability": "nonpayable",
      "type": "constructor"
    },
    {
      "anonymous": false,
      "inputs": [
        {
          "indexed": false,
          "internalType": "string",
          "name": "_timestamp",
          "type": "string"
        },
        {
          "indexed": false,
          "internalType": "address",
          "name": "_from",
          "type": "address"
        },
        {
          "indexed": false,
          "internalType": "uint256",
          "name": "_value",
          "type": "uint256"
        }
      ],
      "name": "Payment",
      "type": "event"
    },
    {
      "inputs": [],
      "name": "owner",
      "outputs": [
        {
          "internalType": "address payable",
          "name": "",
          "type": "address"
        }
      ],
      "stateMutability": "view",
      "type": "function",
      "constant": true
    },
    {
      "inputs": [],
      "name": "price",
      "outputs": [
        {
          "internalType": "uint256",
          "name": "",
          "type": "uint256"
        }
      ],
      "stateMutability": "view",
      "type": "function",
      "constant": true
    },
    {
      "inputs": [],
      "name": "getUserSubscriptionData",
      "outputs": [
        {
          "internalType": "bool",
          "name": "",
          "type": "bool"
        },
        {
          "internalType": "string",
          "name": "",
          "type": "string"
        }
      ],
      "stateMutability": "view",
      "type": "function",
      "constant": true
    },
    {
      "inputs": [],
      "name": "checkBalance",
      "outputs": [
        {
          "internalType": "uint256",
          "name": "",
          "type": "uint256"
        }
      ],
      "stateMutability": "view",
      "type": "function",
      "constant": true
    },
    {
      "inputs": [],
      "name": "withdrawFunds",
      "outputs": [],
      "stateMutability": "nonpayable",
      "type": "function"
    },
    {
      "inputs": [
        {
          "internalType": "string",
          "name": "_timestamp",
          "type": "string"
        }
      ],
      "name": "payment",
      "outputs": [],
      "stateMutability": "payable",
      "type": "function",
      "payable": true
    },
    {
      "inputs": [
        {
          "internalType": "uint256",
          "name": "_newPrice",
          "type": "uint256"
        }
      ],
      "name": "changePrice",
      "outputs": [],
      "stateMutability": "nonpayable",
      "type": "function"
    },
    {
      "inputs": [
        {
          "internalType": "address",
          "name": "_address",
          "type": "address"
        }
      ],
      "name": "addToExcluded",
      "outputs": [],
      "stateMutability": "nonpayable",
      "type": "function"
    },
    {
      "inputs": [
        {
          "internalType": "address",
          "name": "_address",
          "type": "address"
        }
      ],
      "name": "removeFromExcluded",
      "outputs": [],
      "stateMutability": "nonpayable",
      "type": "function"
    }
  ],
  "bytecode": "0x608060405267016345785d8a000060005534801561001c57600080fd5b5033600160006101000a81548173ffffffffffffffffffffffffffffffffffffffff021916908373ffffffffffffffffffffffffffffffffffffffff1602179055506000610091600160009054906101000a900473ffffffffffffffffffffffffffffffffffffffff166100b660201b60201c565b905060018160000160006101000a81548160ff021916908315150217905550506100fe565b6000600260008373ffffffffffffffffffffffffffffffffffffffff1673ffffffffffffffffffffffffffffffffffffffff1681526020019081526020016000209050919050565b610f068061010d6000396000f3fe6080604052600436106100865760003560e01c8063a2b40d1911610059578063a2b40d1914610121578063af6fd4a71461014a578063b4d95a9314610166578063c6220ebe1461018f578063c71daccb146101bb57610086565b806324600fc31461008b5780634a0e963c146100a25780638da5cb5b146100cb578063a035b1fe146100f6575b600080fd5b34801561009757600080fd5b506100a06101e6565b005b3480156100ae57600080fd5b506100c960048036038101906100c491906109c0565b6102e1565b005b3480156100d757600080fd5b506100e061040f565b6040516100ed9190610b95565b60405180910390f35b34801561010257600080fd5b5061010b610435565b6040516101189190610ca0565b60405180910390f35b34801561012d57600080fd5b5061014860048036038101906101439190610a3a565b61043b565b005b610164600480360381019061015f91906109ed565b6104d5565b005b34801561017257600080fd5b5061018d600480360381019061018891906109c0565b61057d565b005b34801561019b57600080fd5b506101a46106ab565b6040516101b2929190610bb0565b60405180910390f35b3480156101c757600080fd5b506101d06107bd565b6040516101dd9190610ca0565b60405180910390f35b3373ffffffffffffffffffffffffffffffffffffffff16600160009054906101000a900473ffffffffffffffffffffffffffffffffffffffff1673ffffffffffffffffffffffffffffffffffffffff1614610276576040517f08c379a000000000000000000000000000000000000000000000000000000000815260040161026d90610c80565b60405180910390fd5b600160009054906101000a900473ffffffffffffffffffffffffffffffffffffffff1673ffffffffffffffffffffffffffffffffffffffff166108fc479081150290604051600060405180830381858888f193505050501580156102de573d6000803e3d6000fd5b50565b3373ffffffffffffffffffffffffffffffffffffffff16600160009054906101000a900473ffffffffffffffffffffffffffffffffffffffff1673ffffffffffffffffffffffffffffffffffffffff1614610371576040517f08c379a000000000000000000000000000000000000000000000000000000000815260040161036890610c80565b60405180910390fd5b600073ffffffffffffffffffffffffffffffffffffffff168173ffffffffffffffffffffffffffffffffffffffff1614156103e1576040517f08c379a00000000000000000000000000000000000000000000000000000000081526004016103d890610c20565b60405180910390fd5b60006103ec82610855565b905060018160000160006101000a81548160ff0219169083151502179055505050565b600160009054906101000a900473ffffffffffffffffffffffffffffffffffffffff1681565b60005481565b3373ffffffffffffffffffffffffffffffffffffffff16600160009054906101000a900473ffffffffffffffffffffffffffffffffffffffff1673ffffffffffffffffffffffffffffffffffffffff16146104cb576040517f08c379a00000000000000000000000000000000000000000000000000000000081526004016104c290610c80565b60405180910390fd5b8060008190555050565b60005434101561051a576040517f08c379a000000000000000000000000000000000000000000000000000000000815260040161051190610c40565b60405180910390fd5b600061052533610855565b9050828282600101919061053a92919061089d565b507f88b3400591852f84d54c3b8327fe53aaaf4846189bac8e5fdad0dfa2aeeb118a838333346040516105709493929190610be0565b60405180910390a1505050565b3373ffffffffffffffffffffffffffffffffffffffff16600160009054906101000a900473ffffffffffffffffffffffffffffffffffffffff1673ffffffffffffffffffffffffffffffffffffffff161461060d576040517f08c379a000000000000000000000000000000000000000000000000000000000815260040161060490610c80565b60405180910390fd5b600073ffffffffffffffffffffffffffffffffffffffff168173ffffffffffffffffffffffffffffffffffffffff16141561067d576040517f08c379a000000000000000000000000000000000000000000000000000000000815260040161067490610c60565b60405180910390fd5b600061068882610855565b905060008160000160006101000a81548160ff0219169083151502179055505050565b600060606000600260003373ffffffffffffffffffffffffffffffffffffffff1673ffffffffffffffffffffffffffffffffffffffff1681526020019081526020016000206040518060400160405290816000820160009054906101000a900460ff1615151515815260200160018201805461072690610d73565b80601f016020809104026020016040519081016040528092919081815260200182805461075290610d73565b801561079f5780601f106107745761010080835404028352916020019161079f565b820191906000526020600020905b81548152906001019060200180831161078257829003601f168201915b50505050508152505090508060000151816020015192509250509091565b60003373ffffffffffffffffffffffffffffffffffffffff16600160009054906101000a900473ffffffffffffffffffffffffffffffffffffffff1673ffffffffffffffffffffffffffffffffffffffff161461084f576040517f08c379a000000000000000000000000000000000000000000000000000000000815260040161084690610c80565b60405180910390fd5b47905090565b6000600260008373ffffffffffffffffffffffffffffffffffffffff1673ffffffffffffffffffffffffffffffffffffffff1681526020019081526020016000209050919050565b8280546108a990610d73565b90600052602060002090601f0160209004810192826108cb5760008555610912565b82601f106108e457803560ff1916838001178555610912565b82800160010185558215610912579182015b828111156109115782358255916020019190600101906108f6565b5b50905061091f9190610923565b5090565b5b8082111561093c576000816000905550600101610924565b5090565b60008135905061094f81610ea2565b92915050565b60008083601f84011261096b5761096a610dd9565b5b8235905067ffffffffffffffff81111561098857610987610dd4565b5b6020830191508360018202830111156109a4576109a3610dde565b5b9250929050565b6000813590506109ba81610eb9565b92915050565b6000602082840312156109d6576109d5610de8565b5b60006109e484828501610940565b91505092915050565b60008060208385031215610a0457610a03610de8565b5b600083013567ffffffffffffffff811115610a2257610a21610de3565b5b610a2e85828601610955565b92509250509250929050565b600060208284031215610a5057610a4f610de8565b5b6000610a5e848285016109ab565b91505092915050565b610a7081610ce9565b82525050565b610a7f81610cd7565b82525050565b610a8e81610cfb565b82525050565b6000610aa08385610cc6565b9350610aad838584610d31565b610ab683610ded565b840190509392505050565b6000610acc82610cbb565b610ad68185610cc6565b9350610ae6818560208601610d40565b610aef81610ded565b840191505092915050565b6000610b07601b83610cc6565b9150610b1282610dfe565b602082019050919050565b6000610b2a601983610cc6565b9150610b3582610e27565b602082019050919050565b6000610b4d601c83610cc6565b9150610b5882610e50565b602082019050919050565b6000610b70601e83610cc6565b9150610b7b82610e79565b602082019050919050565b610b8f81610d27565b82525050565b6000602082019050610baa6000830184610a67565b92915050565b6000604082019050610bc56000830185610a85565b8181036020830152610bd78184610ac1565b90509392505050565b60006060820190508181036000830152610bfb818688610a94565b9050610c0a6020830185610a76565b610c176040830184610b86565b95945050505050565b60006020820190508181036000830152610c3981610afa565b9050919050565b60006020820190508181036000830152610c5981610b1d565b9050919050565b60006020820190508181036000830152610c7981610b40565b9050919050565b60006020820190508181036000830152610c9981610b63565b9050919050565b6000602082019050610cb56000830184610b86565b92915050565b600081519050919050565b600082825260208201905092915050565b6000610ce282610d07565b9050919050565b6000610cf482610d07565b9050919050565b60008115159050919050565b600073ffffffffffffffffffffffffffffffffffffffff82169050919050565b6000819050919050565b82818337600083830152505050565b60005b83811015610d5e578082015181840152602081019050610d43565b83811115610d6d576000848401525b50505050565b60006002820490506001821680610d8b57607f821691505b60208210811415610d9f57610d9e610da5565b5b50919050565b7f4e487b7100000000000000000000000000000000000000000000000000000000600052602260045260246000fd5b600080fd5b600080fd5b600080fd5b600080fd5b600080fd5b6000601f19601f8301169050919050565b7f4164647265737320302c207065726d6973696f6e2064656e6965640000000000600082015250565b7f756e7065726d6974746564207061796d656e742076616c756500000000000000600082015250565b7f4164647265737320302c207065726d697373696f6e2064656e69656400000000600082015250565b7f4163636573732064656e6965642e204f6e6c7920666f72206f776e65722e0000600082015250565b610eab81610cd7565b8114610eb657600080fd5b50565b610ec281610d27565b8114610ecd57600080fd5b5056fea26469706673582212203bdeec1bd48346d3b831b70e1bb4d60801eb7a61145e851d082ebc50d13e16fb64736f6c63430008070033",
  "immutableReferences": {},
  "source": "// SPDX-License-Identifier: MIT\r\npragma solidity >=0.4.22 <0.9.0;\r\n\r\ncontract PaymentsContract {\r\n    uint256 public price = 10**17;\r\n    address payable public owner;\r\n\r\n    struct UserSubscriptionSchema {\r\n        bool excludedAccount;\r\n        string timestamp;\r\n    }\r\n\r\n    mapping(address => UserSubscriptionSchema) private userSubscriptionList; // gettind data via getUserSubscriptionData\r\n\r\n    modifier onlyOwner() {\r\n        require(owner == msg.sender, \"Access denied. Only for owner.\");\r\n        _;\r\n    }\r\n\r\n    event Payment(string _timestamp, address _from, uint256 _value);\r\n\r\n    constructor() public {\r\n        owner = payable(msg.sender);\r\n        UserSubscriptionSchema storage schema = getSchema(owner);\r\n        schema.excludedAccount = true;\r\n    }\r\n\r\n    function getUserSubscriptionData()\r\n        public\r\n        view\r\n        returns (bool, string memory)\r\n    {\r\n        // gas optymalization\r\n        UserSubscriptionSchema memory schema = userSubscriptionList[msg.sender];\r\n        return (schema.excludedAccount, schema.timestamp);\r\n    }\r\n\r\n    function checkBalance() external view onlyOwner returns (uint256) {\r\n        return address(this).balance;\r\n    }\r\n\r\n    function withdrawFunds() external onlyOwner {\r\n        owner.transfer(address(this).balance);\r\n    }\r\n\r\n    function payment(string calldata _timestamp) external payable {\r\n        require(msg.value >= price, \"unpermitted payment value\");\r\n        UserSubscriptionSchema storage schema = getSchema(msg.sender);\r\n        schema.timestamp = _timestamp;\r\n        emit Payment(_timestamp, msg.sender, msg.value);\r\n    }\r\n\r\n    function changePrice(uint256 _newPrice) external onlyOwner {\r\n        price = _newPrice;\r\n    }\r\n\r\n    function addToExcluded(address _address) external onlyOwner {\r\n        require(_address != address(0), \"Address 0, permision denied\");\r\n        UserSubscriptionSchema storage schema = getSchema(_address);\r\n        schema.excludedAccount = true;\r\n    }\r\n\r\n    function removeFromExcluded(address _address) external onlyOwner {\r\n        require(_address != address(0), \"Address 0, permission denied\");\r\n        UserSubscriptionSchema storage schema = getSchema(_address);\r\n        schema.excludedAccount = false;\r\n    }\r\n\r\n    function getSchema(address _address)\r\n        private\r\n        view\r\n        returns (UserSubscriptionSchema storage)\r\n    {\r\n        return userSubscriptionList[_address];\r\n    }\r\n}\r\n",
  "sourcePath": "C:\\Users\\dawid\\OneDrive\\Pulpit\\cryptofy-react\\client\\contracts\\PaymentsContract.sol",
  "compiler": {
    "name": "solc",
    "version": "0.8.7+commit.e28d00a7.Emscripten.clang"
  },
  "schemaVersion": "3.4.3",
  "updatedAt": "2021-09-27T15:43:16.909Z",
  "networkType": "ethereum",
  "devdoc": {
    "kind": "dev",
    "methods": {},
    "version": 1
  },
  "userdoc": {
    "kind": "user",
    "methods": {},
    "version": 1
  }
}